{
  "hash": "0000000000000000000b47042b90c6a893e6e5cdef70c92beefb88f4c5fa5a69",
  "confirmations": -1,
  "strippedsize": 298,
  "size": 334,
  "weight": 1228,
  "height": 584802,
  "version": 541065216,
  "versionHex": "20400000",
  "merkleroot": "7a4a31da4258dd1b00728ce0cdd766500fe2ea2ee378316945c904bc949b5a7f",
  "tx": [
    {
      "txid": "7a4a31da4258dd1b00728ce0cdd766500fe2ea2ee378316945c904bc949b5a7f",
      "hash": "5844edb95fa58eeb6e2c292fa1d3811afb797d62e35905bfd35f029068c37127",
      "version": 1,
      "size": 253,
      "vsize": 226,
      "weight": 904,
      "locktime": 0,
      "vin": [
        {
          "coinbase": "0362ec081c4d696e656420627920416e74506f6f6c313132ee003300200f0c9c50fabe6d6dc0ba0d6922d0606afa6321ef35c91f070cb29a0425d4ffef18f70658908db8b6040000000000000033060000b43f0000",
          "sequence": 4294967295
        }
      ],
      "vout": [
        {
          "value": 13.26546691,
          "n": 0,
          "scriptPubKey": {
            "asm": "OP_DUP OP_HASH160 edf10a7fac6b32e24daa5305c723f3de58db1bc8 OP_EQUALVERIFY OP_CHECKSIG",
            "hex": "76a914edf10a7fac6b32e24daa5305c723f3de58db1bc888ac",
            "reqSigs": 1,
            "type": "pubkeyhash",
            "addresses": [
              "1Nh7uHdvY6fNwtQtM1G5EZAFPLC33B59rB"
            ]
          }
        },
        {
          "value": 0.00000000,
          "n": 1,
          "scriptPubKey": {
            "asm": "OP_RETURN aa21a9ede2f61c3f71d1defd3fa999dfa36953755c690689799962b48bebd836974e8cf9",
            "hex": "6a24aa21a9ede2f61c3f71d1defd3fa999dfa36953755c690689799962b48bebd836974e8cf9",
            "type": "nulldata"
          }
        }
      ],
      "hex": "010000000001010000000000000000000000000000000000000000000000000000000000000000ffffffff550362ec081c4d696e656420627920416e74506f6f6c313132ee003300200f0c9c50fabe6d6dc0ba0d6922d0606afa6321ef35c91f070cb29a0425d4ffef18f70658908db8b6040000000000000033060000b43f0000ffffffff02037f114f000000001976a914edf10a7fac6b32e24daa5305c723f3de58db1bc888ac0000000000000000266a24aa21a9ede2f61c3f71d1defd3fa999dfa36953755c690689799962b48bebd836974e8cf90120000000000000000000000000000000000000000000000000000000000000000000000000"
    }
  ],
  "time": 1562769325,
  "mediantime": 1562768560,
  "nonce": 1839588352,
  "bits": "171f0d9b",
  "difficulty": 9064159826491.41,
  "chainwork": "0000000000000000000000000000000000000000071e096a92ffbaebf02268ff",
  "nTx": 1,
  "previousblockhash": "0000000000000000001b253b1fac766189e15d7f7078191002e5427ac7b8f9f1"
}
